:1000000000308A0061280000FF00030E8301A10078
:100010000A08A0008A010408A2007708A300780853
:10002000A4007908A5007A08A600831383128B1E0A
:100030001B280B192C28220884002308F700240809
:10004000F8002508F9002608FA0020088A00210E89
:100050008300FF0E7F0E09008A110A122F28D93063
:1000600081002908323C031D46282708083C031953
:10007000A7018030F7002708F80003194328031070
:10008000F70CF80B3F2877088806A70A2908503C88
:10009000031D5C282808083C0319A8010130F7005B
:1000A0002808F800031958280310F70DF80B5428F6
:1000B00077088806A80AA901A90A0B118A110A1251
:1000C0001B28A701A801A90183161F149F141F153F
:1000D0009F1107309C0083131F3083050912831280
:1000E00090010030F80092000030831692001F1437
:1000F0009F141F159F1183121F10F03097059D0547
:100100000030831688008312880183160108C039E5
:1001100007388100D930831281008B16C0308B04E0
:0401200090286300C0
:02400E00393F38
:00000001FF
;PIC16F877A
;CRC=DEB3  CREATED="30-Mar-22 14:04"
