:1000000000308A0042280000FF00030E8301A10097
:100010000A08A0008A010408A2007708A300780853
:10002000A4007908A5007A08A600831383128B1E0A
:100030001B280B192C28220884002308F700240809
:10004000F8002508F9002608FA0020088A00210E89
:100050008300FF0E7F0E09008A110A122F28FA3042
:10006000810027082802031C081427082802031807
:100070000810A80A2808643C0319A8010B118A116A
:100080000A121B280A30A700A80183161F149F1408
:100090001F159F1107309C0083131F308305091221
:1000A000831290010030F800920000308316920015
:1000B0001F149F141F159F1183121F10F0309705F6
:1000C0009D050030831688000108C0390238810080
:1000D000FA30831281008B16C0308B046E286300C7
:02400E00393F38
:00000001FF
;PIC16F877A
;CRC=0447  CREATED="01-Haz-22 21:54"
