:1000000000308A00C3280000FF00030E8301A10016
:100010000A08A0008A010408A2007708A300780853
:10002000A4007908A5007A08A600831383128B1E0A
:100030001B280B192C28220884002308F700240809
:10004000F8002508F9002608FA0020088A00210E89
:100050008300FF0E7F0E09008A110A1244283B0814
:10006000F8013A02031837283A08F7004328F70145
:100070000830BC00BA0DF70D3B0877020318F700F3
:10008000F80DBC0B3A280800D93081003208643CD6
:10009000031D7628B10A3108BA003C30BB002F207E
:1000A0007708B3003308BA000A30BB002F20770866
:1000B000B4003308BA000A30BB002F207808B5001E
:1000C0003108BA003C30BB002F207808B600360853
:1000D000BA000A30BB002F207708B7003608BA00F4
:1000E0000A30BB002F207808B800B201B20A0B1109
:1000F0008A110A121B28393084008313000803195F
:100100008F280130F800F701F70B8428F80B8328BB
:100110004A30F700F70B8A288D28800B81280800C9
:1001200027303407840083130008B90088000714BF
:100130000130B9007B200710273035078400831376
:100140000008B900880087140130B9007B208710AF
:1001500027303707840083130008B900880007158B
:100160000130B9007B200711273038078400831342
:100170000008B900880007160130B9007B2007127B
:100180008A110A121429B101B201B401B501B701F3
:10019000B80183161F149F141F159F1107309C0070
:1001A00083131F308305FC308312A7006030A80042
:1001B000DA30A900F230AA006630AB00B630AC00ED
:1001C000BE30AD00E030AE00FE30AF00F630B00023
:1001D00083160912831290010030F800920000305B
:1001E000831692001F149F141F159F1183121F1056
:1001F000F03097059D050030831686008312860136
:100200008316880083128801831687008312870172
:1002100083160108C03907388100D9308312810064
:0C0220008B16C0308B049028132963005B
:02400E00393F38
:00000001FF
;PIC16F877A
;CRC=66AA  CREATED="30-Mar-22 13:38"
