:1000000000308A0019280000233084008313000880
:10001000031918280130F800F701F70B0D28F80B29
:100020000C284A30F700F70B13281628800B0A28F3
:10003000080083161F149F141F159F1107309C0082
:1000400083131F30830509128312900183161F1436
:100050009F141F159F1183121F10F0309D0507116B
:100060000C3097000F3083168500003087007C30FD
:100070008312A1000030F800053892002108831691
:1000800092003E308312A20022089500051C5528DC
:10009000051848281E30A30004200630A2072208B5
:1000A0007C3C031855287C30A20022089500851C52
:1000B0006828851859281E30A30004200630A202A3
:1000C0002208053C031C66280630A2002208950081
:1000D000851D792885196A281E30A3000420013067
:1000E000A1070030F800053892002108831692001D
:1000F0008312051D8A2805197B281E30A3000420C1
:100100000130A1020030F800053892002108831662
:080110009200831246286300EF
:02400E00393F38
:00000001FF
;PIC16F877A
;CRC=10CD  CREATED="01-Haz-22 21:50"
